{
  "contractName": "MetaCardsNft",
  "abi": [
    {
      "inputs": [
        {
          "internalType": "string",
          "name": "_name",
          "type": "string"
        },
        {
          "internalType": "string",
          "name": "_symbol",
          "type": "string"
        }
      ],
      "stateMutability": "nonpayable",
      "type": "constructor"
    },
    {
      "anonymous": false,
      "inputs": [
        {
          "indexed": true,
          "internalType": "address",
          "name": "_owner",
          "type": "address"
        },
        {
          "indexed": true,
          "internalType": "address",
          "name": "_approved",
          "type": "address"
        },
        {
          "indexed": true,
          "internalType": "uint256",
          "name": "_tokenId",
          "type": "uint256"
        }
      ],
      "name": "Approval",
      "type": "event"
    },
    {
      "anonymous": false,
      "inputs": [
        {
          "indexed": true,
          "internalType": "address",
          "name": "_owner",
          "type": "address"
        },
        {
          "indexed": true,
          "internalType": "address",
          "name": "_operator",
          "type": "address"
        },
        {
          "indexed": false,
          "internalType": "bool",
          "name": "_approved",
          "type": "bool"
        }
      ],
      "name": "ApprovalForAll",
      "type": "event"
    },
    {
      "anonymous": false,
      "inputs": [
        {
          "indexed": true,
          "internalType": "address",
          "name": "_from",
          "type": "address"
        },
        {
          "indexed": true,
          "internalType": "address",
          "name": "_to",
          "type": "address"
        },
        {
          "indexed": true,
          "internalType": "uint256",
          "name": "_tokenId",
          "type": "uint256"
        }
      ],
      "name": "Transfer",
      "type": "event"
    },
    {
      "inputs": [
        {
          "internalType": "address",
          "name": "",
          "type": "address"
        }
      ],
      "name": "balanceOf",
      "outputs": [
        {
          "internalType": "uint256",
          "name": "",
          "type": "uint256"
        }
      ],
      "stateMutability": "view",
      "type": "function"
    },
    {
      "inputs": [],
      "name": "name",
      "outputs": [
        {
          "internalType": "string",
          "name": "",
          "type": "string"
        }
      ],
      "stateMutability": "view",
      "type": "function"
    },
    {
      "inputs": [
        {
          "internalType": "uint256",
          "name": "",
          "type": "uint256"
        }
      ],
      "name": "ownerOf",
      "outputs": [
        {
          "internalType": "address",
          "name": "",
          "type": "address"
        }
      ],
      "stateMutability": "view",
      "type": "function"
    },
    {
      "inputs": [],
      "name": "symbol",
      "outputs": [
        {
          "internalType": "string",
          "name": "",
          "type": "string"
        }
      ],
      "stateMutability": "view",
      "type": "function"
    },
    {
      "inputs": [
        {
          "internalType": "uint256",
          "name": "",
          "type": "uint256"
        }
      ],
      "name": "tokenAproved",
      "outputs": [
        {
          "internalType": "address",
          "name": "",
          "type": "address"
        }
      ],
      "stateMutability": "view",
      "type": "function"
    },
    {
      "inputs": [
        {
          "internalType": "address",
          "name": "_to",
          "type": "address"
        },
        {
          "internalType": "uint256",
          "name": "tokenId",
          "type": "uint256"
        },
        {
          "internalType": "string",
          "name": "_TokenURI",
          "type": "string"
        }
      ],
      "name": "mint",
      "outputs": [],
      "stateMutability": "nonpayable",
      "type": "function"
    },
    {
      "inputs": [
        {
          "internalType": "uint256",
          "name": "_tokenId",
          "type": "uint256"
        }
      ],
      "name": "tokenURI",
      "outputs": [
        {
          "internalType": "string",
          "name": "",
          "type": "string"
        }
      ],
      "stateMutability": "view",
      "type": "function"
    },
    {
      "inputs": [
        {
          "internalType": "address",
          "name": "_from",
          "type": "address"
        },
        {
          "internalType": "address",
          "name": "_to",
          "type": "address"
        },
        {
          "internalType": "uint256",
          "name": "_tokenId",
          "type": "uint256"
        }
      ],
      "name": "safeTransferFrom",
      "outputs": [],
      "stateMutability": "payable",
      "type": "function"
    },
    {
      "inputs": [
        {
          "internalType": "address",
          "name": "_from",
          "type": "address"
        },
        {
          "internalType": "address",
          "name": "_to",
          "type": "address"
        },
        {
          "internalType": "uint256",
          "name": "_tokenId",
          "type": "uint256"
        },
        {
          "internalType": "bytes",
          "name": "data",
          "type": "bytes"
        }
      ],
      "name": "safeTransferFrom",
      "outputs": [],
      "stateMutability": "payable",
      "type": "function"
    },
    {
      "inputs": [
        {
          "internalType": "address",
          "name": "_from",
          "type": "address"
        },
        {
          "internalType": "address",
          "name": "_to",
          "type": "address"
        },
        {
          "internalType": "uint256",
          "name": "_tokenId",
          "type": "uint256"
        }
      ],
      "name": "transferFrom",
      "outputs": [],
      "stateMutability": "payable",
      "type": "function"
    },
    {
      "inputs": [
        {
          "internalType": "address",
          "name": "_approved",
          "type": "address"
        },
        {
          "internalType": "uint256",
          "name": "_tokenId",
          "type": "uint256"
        }
      ],
      "name": "approve",
      "outputs": [],
      "stateMutability": "payable",
      "type": "function"
    },
    {
      "inputs": [
        {
          "internalType": "uint256",
          "name": "_tokenId",
          "type": "uint256"
        }
      ],
      "name": "getApproved",
      "outputs": [
        {
          "internalType": "address",
          "name": "",
          "type": "address"
        }
      ],
      "stateMutability": "view",
      "type": "function"
    }
  ],
  "bytecode": "0x60806040523480156200001157600080fd5b5060405162002285380380620022858339818101604052810190620000379190620001db565b600080546200004690620002e3565b80601f01602080910402602001604051908101604052809291908181526020018280546200007490620002e3565b8015620000c55780601f106200009957610100808354040283529160200191620000c5565b820191906000526020600020905b815481529060010190602001808311620000a757829003601f168201915b5050505050915060018054620000db90620002e3565b80601f01602080910402602001604051908101604052809291908181526020018280546200010990620002e3565b80156200015a5780601f106200012e576101008083540402835291602001916200015a565b820191906000526020600020905b8154815290600101906020018083116200013c57829003601f168201915b505050505090505050620003be565b6000620001806200017a8462000277565b6200024e565b9050828152602081018484840111156200019957600080fd5b620001a6848285620002ad565b509392505050565b600082601f830112620001c057600080fd5b8151620001d284826020860162000169565b91505092915050565b60008060408385031215620001ef57600080fd5b600083015167ffffffffffffffff8111156200020a57600080fd5b6200021885828601620001ae565b925050602083015167ffffffffffffffff8111156200023657600080fd5b6200024485828601620001ae565b9150509250929050565b60006200025a6200026d565b905062000268828262000319565b919050565b6000604051905090565b600067ffffffffffffffff8211156200029557620002946200037e565b5b620002a082620003ad565b9050602081019050919050565b60005b83811015620002cd578082015181840152602081019050620002b0565b83811115620002dd576000848401525b50505050565b60006002820490506001821680620002fc57607f821691505b602082108114156200031357620003126200034f565b5b50919050565b6200032482620003ad565b810181811067ffffffffffffffff821117156200034657620003456200037e565b5b80604052505050565b7f4e487b7100000000000000000000000000000000000000000000000000000000600052602260045260246000fd5b7f4e487b7100000000000000000000000000000000000000000000000000000000600052604160045260246000fd5b6000601f19601f8301169050919050565b611eb780620003ce6000396000f3fe6080604052600436106100c4576000357c0100000000000000000000000000000000000000000000000000000000900480636352211e116100815780636352211e146101c257806370a08231146101ff57806395d89b411461023c578063b88d4fde14610267578063c87b56dd14610283578063d3fc9864146102c0576100c4565b806306fdde03146100c9578063081812fc146100f4578063095ea7b3146101315780631fd0c1721461014d57806323b872dd1461018a57806342842e0e146101a6575b600080fd5b3480156100d557600080fd5b506100de6102e9565b6040516100eb9190611890565b60405180910390f35b34801561010057600080fd5b5061011b60048036038101906101169190611697565b610377565b6040516101289190611875565b60405180910390f35b61014b600480360381019061014691906115f4565b6103b4565b005b34801561015957600080fd5b50610174600480360381019061016f9190611697565b61053a565b6040516101819190611875565b60405180910390f35b6101a4600480360381019061019f919061152a565b61056d565b005b6101c060048036038101906101bb919061152a565b610922565b005b3480156101ce57600080fd5b506101e960048036038101906101e49190611697565b610c34565b6040516101f69190611875565b60405180910390f35b34801561020b57600080fd5b5061022660048036038101906102219190611501565b610c67565b60405161023391906119f2565b60405180910390f35b34801561024857600080fd5b50610251610c7f565b60405161025e9190611890565b60405180910390f35b610281600480360381019061027c9190611579565b610d0d565b005b34801561028f57600080fd5b506102aa60048036038101906102a59190611697565b611020565b6040516102b79190611890565b60405180910390f35b3480156102cc57600080fd5b506102e760048036038101906102e29190611630565b61110d565b005b600080546102f690611bb8565b80601f016020809104026020016040519081016040528092919081815260200182805461032290611bb8565b801561036f5780601f106103445761010080835404028352916020019161036f565b820191906000526020600020905b81548152906001019060200180831161035257829003601f168201915b505050505081565b60006005600083815260200190815260200160002060009054906101000a900473ffffffffffffffffffffffffffffffffffffffff169050919050565b8173ffffffffffffffffffffffffffffffffffffffff166004600083815260200190815260200160002060009054906101000a900473ffffffffffffffffffffffffffffffffffffffff1673ffffffffffffffffffffffffffffffffffffffff161415610456576040517f08c379a000000000000000000000000000000000000000000000000000000000815260040161044d90611932565b60405180910390fd5b816005600083815260200190815260200160002060006101000a81548173ffffffffffffffffffffffffffffffffffffffff021916908373ffffffffffffffffffffffffffffffffffffffff160217905550808273ffffffffffffffffffffffffffffffffffffffff166004600084815260200190815260200160002060009054906101000a900473ffffffffffffffffffffffffffffffffffffffff1673ffffffffffffffffffffffffffffffffffffffff167f8c5be1e5ebec7d5bd14f71427d1e84f3dd0314c0f7b2291e5b200ac8c7c3b92560405160405180910390a45050565b60056020528060005260406000206000915054906101000a900473ffffffffffffffffffffffffffffffffffffffff1681565b3373ffffffffffffffffffffffffffffffffffffffff166004600083815260200190815260200160002060009054906101000a900473ffffffffffffffffffffffffffffffffffffffff1673ffffffffffffffffffffffffffffffffffffffff161461060e576040517f08c379a0000000000000000000000000000000000000000000000000000000008152600401610605906119d2565b60405180910390fd5b8273ffffffffffffffffffffffffffffffffffffffff166004600083815260200190815260200160002060009054906101000a900473ffffffffffffffffffffffffffffffffffffffff1673ffffffffffffffffffffffffffffffffffffffff16146106af576040517f08c379a00000000000000000000000000000000000000000000000000000000081526004016106a690611952565b60405180910390fd5b600073ffffffffffffffffffffffffffffffffffffffff166004600083815260200190815260200160002060009054906101000a900473ffffffffffffffffffffffffffffffffffffffff1673ffffffffffffffffffffffffffffffffffffffff161415610752576040517f08c379a0000000000000000000000000000000000000000000000000000000008152600401610749906118b2565b60405180910390fd5b8173ffffffffffffffffffffffffffffffffffffffff16600073ffffffffffffffffffffffffffffffffffffffff1614156107c2576040517f08c379a00000000000000000000000000000000000000000000000000000000081526004016107b9906118f2565b60405180910390fd5b816004600083815260200190815260200160002060006101000a81548173ffffffffffffffffffffffffffffffffffffffff021916908373ffffffffffffffffffffffffffffffffffffffff1602179055506001600360008473ffffffffffffffffffffffffffffffffffffffff1673ffffffffffffffffffffffffffffffffffffffff16815260200190815260200160002060008282546108649190611ab0565b925050819055506001600360008573ffffffffffffffffffffffffffffffffffffffff1673ffffffffffffffffffffffffffffffffffffffff16815260200190815260200160002060008282546108bb9190611b06565b92505081905550808273ffffffffffffffffffffffffffffffffffffffff168473ffffffffffffffffffffffffffffffffffffffff167fddf252ad1be2c89b69c2b068fc378daa952ba7f163c4a11628f55a4df523b3ef60405160405180910390a4505050565b3373ffffffffffffffffffffffffffffffffffffffff166004600083815260200190815260200160002060009054906101000a900473ffffffffffffffffffffffffffffffffffffffff1673ffffffffffffffffffffffffffffffffffffffff16146109c3576040517f08c379a00000000000000000000000000000000000000000000000000000000081526004016109ba90611912565b60405180910390fd5b8173ffffffffffffffffffffffffffffffffffffffff166005600083815260200190815260200160002060009054906101000a900473ffffffffffffffffffffffffffffffffffffffff1673ffffffffffffffffffffffffffffffffffffffff1614610a64576040517f08c379a0000000000000000000000000000000000000000000000000000000008152600401610a5b906119b2565b60405180910390fd5b8173ffffffffffffffffffffffffffffffffffffffff16600073ffffffffffffffffffffffffffffffffffffffff161415610ad4576040517f08c379a0000000000000000000000000000000000000000000000000000000008152600401610acb906118f2565b60405180910390fd5b816004600083815260200190815260200160002060006101000a81548173ffffffffffffffffffffffffffffffffffffffff021916908373ffffffffffffffffffffffffffffffffffffffff1602179055506001600360008473ffffffffffffffffffffffffffffffffffffffff1673ffffffffffffffffffffffffffffffffffffffff1681526020019081526020016000206000828254610b769190611ab0565b925050819055506001600360008573ffffffffffffffffffffffffffffffffffffffff1673ffffffffffffffffffffffffffffffffffffffff1681526020019081526020016000206000828254610bcd9190611b06565b92505081905550808273ffffffffffffffffffffffffffffffffffffffff168473ffffffffffffffffffffffffffffffffffffffff167fddf252ad1be2c89b69c2b068fc378daa952ba7f163c4a11628f55a4df523b3ef60405160405180910390a4505050565b60046020528060005260406000206000915054906101000a900473ffffffffffffffffffffffffffffffffffffffff1681565b60036020528060005260406000206000915090505481565b60018054610c8c90611bb8565b80601f0160208091040260200160405190810160405280929190818152602001828054610cb890611bb8565b8015610d055780601f10610cda57610100808354040283529160200191610d05565b820191906000526020600020905b815481529060010190602001808311610ce857829003601f168201915b505050505081565b3373ffffffffffffffffffffffffffffffffffffffff166004600084815260200190815260200160002060009054906101000a900473ffffffffffffffffffffffffffffffffffffffff1673ffffffffffffffffffffffffffffffffffffffff1614610dae576040517f08c379a0000000000000000000000000000000000000000000000000000000008152600401610da590611912565b60405180910390fd5b8273ffffffffffffffffffffffffffffffffffffffff166005600084815260200190815260200160002060009054906101000a900473ffffffffffffffffffffffffffffffffffffffff1673ffffffffffffffffffffffffffffffffffffffff1614610e4f576040517f08c379a0000000000000000000000000000000000000000000000000000000008152600401610e46906119b2565b60405180910390fd5b8273ffffffffffffffffffffffffffffffffffffffff16600073ffffffffffffffffffffffffffffffffffffffff161415610ebf576040517f08c379a0000000000000000000000000000000000000000000000000000000008152600401610eb6906118f2565b60405180910390fd5b826004600084815260200190815260200160002060006101000a81548173ffffffffffffffffffffffffffffffffffffffff021916908373ffffffffffffffffffffffffffffffffffffffff1602179055506001600360008573ffffffffffffffffffffffffffffffffffffffff1673ffffffffffffffffffffffffffffffffffffffff1681526020019081526020016000206000828254610f619190611ab0565b925050819055506001600360008673ffffffffffffffffffffffffffffffffffffffff1673ffffffffffffffffffffffffffffffffffffffff1681526020019081526020016000206000828254610fb89190611b06565b92505081905550818373ffffffffffffffffffffffffffffffffffffffff168573ffffffffffffffffffffffffffffffffffffffff167fddf252ad1be2c89b69c2b068fc378daa952ba7f163c4a11628f55a4df523b3ef60405160405180910390a450505050565b606061102b826112f8565b61106a576040517f08c379a000000000000000000000000000000000000000000000000000000000815260040161106190611992565b60405180910390fd5b60026000838152602001908152602001600020805461108890611bb8565b80601f01602080910402602001604051908101604052809291908181526020018280546110b490611bb8565b80156111015780601f106110d657610100808354040283529160200191611101565b820191906000526020600020905b8154815290600101906020018083116110e457829003601f168201915b50505050509050919050565b600073ffffffffffffffffffffffffffffffffffffffff168373ffffffffffffffffffffffffffffffffffffffff16141561117d576040517f08c379a000000000000000000000000000000000000000000000000000000000815260040161117490611972565b60405180910390fd5b611186826112f8565b156111c6576040517f08c379a00000000000000000000000000000000000000000000000000000000081526004016111bd906118d2565b60405180910390fd5b6001600360008573ffffffffffffffffffffffffffffffffffffffff1673ffffffffffffffffffffffffffffffffffffffff16815260200190815260200160002060008282546112169190611ab0565b92505081905550826004600084815260200190815260200160002060006101000a81548173ffffffffffffffffffffffffffffffffffffffff021916908373ffffffffffffffffffffffffffffffffffffffff16021790555080600260008481526020019081526020016000209080519060200190611296929190611364565b50818373ffffffffffffffffffffffffffffffffffffffff16600073ffffffffffffffffffffffffffffffffffffffff167fddf252ad1be2c89b69c2b068fc378daa952ba7f163c4a11628f55a4df523b3ef60405160405180910390a4505050565b60008073ffffffffffffffffffffffffffffffffffffffff166004600084815260200190815260200160002060009054906101000a900473ffffffffffffffffffffffffffffffffffffffff1673ffffffffffffffffffffffffffffffffffffffff1614159050919050565b82805461137090611bb8565b90600052602060002090601f01602090048101928261139257600085556113d9565b82601f106113ab57805160ff19168380011785556113d9565b828001600101855582156113d9579182015b828111156113d85782518255916020019190600101906113bd565b5b5090506113e691906113ea565b5090565b5b808211156114035760008160009055506001016113eb565b5090565b600061141a61141584611a32565b611a0d565b90508281526020810184848401111561143257600080fd5b61143d848285611b76565b509392505050565b600061145861145384611a63565b611a0d565b90508281526020810184848401111561147057600080fd5b61147b848285611b76565b509392505050565b60008135905061149281611e53565b92915050565b600082601f8301126114a957600080fd5b81356114b9848260208601611407565b91505092915050565b600082601f8301126114d357600080fd5b81356114e3848260208601611445565b91505092915050565b6000813590506114fb81611e6a565b92915050565b60006020828403121561151357600080fd5b600061152184828501611483565b91505092915050565b60008060006060848603121561153f57600080fd5b600061154d86828701611483565b935050602061155e86828701611483565b925050604061156f868287016114ec565b9150509250925092565b6000806000806080858703121561158f57600080fd5b600061159d87828801611483565b94505060206115ae87828801611483565b93505060406115bf878288016114ec565b925050606085013567ffffffffffffffff8111156115dc57600080fd5b6115e887828801611498565b91505092959194509250565b6000806040838503121561160757600080fd5b600061161585828601611483565b9250506020611626858286016114ec565b9150509250929050565b60008060006060848603121561164557600080fd5b600061165386828701611483565b9350506020611664868287016114ec565b925050604084013567ffffffffffffffff81111561168157600080fd5b61168d868287016114c2565b9150509250925092565b6000602082840312156116a957600080fd5b60006116b7848285016114ec565b91505092915050565b6116c981611b3a565b82525050565b60006116da82611a94565b6116e48185611a9f565b93506116f4818560208601611b85565b6116fd81611ca8565b840191505092915050565b6000611715601383611a9f565b915061172082611cb9565b602082019050919050565b6000611738601c83611a9f565b915061174382611ce2565b602082019050919050565b600061175b601383611a9f565b915061176682611d0b565b602082019050919050565b600061177e601c83611a9f565b915061178982611d34565b602082019050919050565b60006117a1601883611a9f565b91506117ac82611d5d565b602082019050919050565b60006117c4601983611a9f565b91506117cf82611d86565b602082019050919050565b60006117e7602083611a9f565b91506117f282611daf565b602082019050919050565b600061180a601183611a9f565b915061181582611dd8565b602082019050919050565b600061182d601583611a9f565b915061183882611e01565b602082019050919050565b6000611850601b83611a9f565b915061185b82611e2a565b602082019050919050565b61186f81611b6c565b82525050565b600060208201905061188a60008301846116c0565b92915050565b600060208201905081810360008301526118aa81846116cf565b905092915050565b600060208201905081810360008301526118cb81611708565b9050919050565b600060208201905081810360008301526118eb8161172b565b9050919050565b6000602082019050818103600083015261190b8161174e565b9050919050565b6000602082019050818103600083015261192b81611771565b9050919050565b6000602082019050818103600083015261194b81611794565b9050919050565b6000602082019050818103600083015261196b816117b7565b9050919050565b6000602082019050818103600083015261198b816117da565b9050919050565b600060208201905081810360008301526119ab816117fd565b9050919050565b600060208201905081810360008301526119cb81611820565b9050919050565b600060208201905081810360008301526119eb81611843565b9050919050565b6000602082019050611a076000830184611866565b92915050565b6000611a17611a28565b9050611a238282611bea565b919050565b6000604051905090565b600067ffffffffffffffff821115611a4d57611a4c611c79565b5b611a5682611ca8565b9050602081019050919050565b600067ffffffffffffffff821115611a7e57611a7d611c79565b5b611a8782611ca8565b9050602081019050919050565b600081519050919050565b600082825260208201905092915050565b6000611abb82611b6c565b9150611ac683611b6c565b9250827fffffffffffffffffffffffffffffffffffffffffffffffffffffffffffffffff03821115611afb57611afa611c1b565b5b828201905092915050565b6000611b1182611b6c565b9150611b1c83611b6c565b925082821015611b2f57611b2e611c1b565b5b828203905092915050565b6000611b4582611b4c565b9050919050565b600073ffffffffffffffffffffffffffffffffffffffff82169050919050565b6000819050919050565b82818337600083830152505050565b60005b83811015611ba3578082015181840152602081019050611b88565b83811115611bb2576000848401525b50505050565b60006002820490506001821680611bd057607f821691505b60208210811415611be457611be3611c4a565b5b50919050565b611bf382611ca8565b810181811067ffffffffffffffff82111715611c1257611c11611c79565b5b80604052505050565b7f4e487b7100000000000000000000000000000000000000000000000000000000600052601160045260246000fd5b7f4e487b7100000000000000000000000000000000000000000000000000000000600052602260045260246000fd5b7f4e487b7100000000000000000000000000000000000000000000000000000000600052604160045260246000fd5b6000601f19601f8301169050919050565b7f546f6b656e20446f65736e277420657873697400000000000000000000000000600082015250565b7f4552433732313a20746f6b656e20616c7265616479206d696e74656400000000600082015250565b7f5f746f2061646472657373206973206e756c6c00000000000000000000000000600082015250565b7f43616c6c6572206973206e6f74206f776e6572206f6620746f6b656e00000000600082015250565b7f5f617070726f7665642063616e2774206265206f776e65720000000000000000600082015250565b7f5f66726f6d206973206e6f74206f776e6572206f66206e667400000000000000600082015250565b7f4552433732313a206d696e7420746f20746865207a65726f2061646472657373600082015250565b7f546f6b656e204e6f742043726561746564000000000000000000000000000000600082015250565b7f546f6b656e206973206e6f7420617070726f7665640000000000000000000000600082015250565b7f6d73672e73656e646572206973206e6f7420746865206f776e65720000000000600082015250565b611e5c81611b3a565b8114611e6757600080fd5b50565b611e7381611b6c565b8114611e7e57600080fd5b5056fea2646970667358221220b5cf515517293b5bec77323dda0f156d3e171c55ae98955d318a5df8184ab25664736f6c63430008030033",
  "immutableReferences": {},
  "source": "// SPDX-License-Identifier: MIT\npragma solidity =0.8.3;\n\nimport \"./Interface/IERC721.sol\";\nimport \"./Interface/IERC721Metadata.sol\";\n\ncontract MetaCardsNft is IERC721, IERC721Metadata {\n    string public override name;\n    string public override symbol;\n    \n    mapping (uint256 => string) _tokenURI;\n    mapping (address => uint256) public override balanceOf;\n    mapping (uint256 => address) public override ownerOf;\n    mapping (uint256 => address) public tokenAproved;\n    mapping (address => mapping (address => bool)) private operatorApproved;\n\n    constructor (string memory _name, string memory _symbol) {\n        _name = name;\n        _symbol = symbol;      \n    }\n\n    function mint(address _to, uint256 tokenId, string memory _TokenURI) public {\n        require(_to != address(0), \"ERC721: mint to the zero address\");\n        require(!_exists(tokenId), \"ERC721: token already minted\");\n\n        balanceOf[_to] += 1;\n        ownerOf[tokenId] = _to;\n        _tokenURI[tokenId] = _TokenURI;\n\n        emit Transfer(address(0), _to, tokenId);\n    }\n\n    function tokenURI(uint256 _tokenId) external view override returns (string memory) {\n        require(_exists(_tokenId) , \"Token Not Created\");\n        return _tokenURI[_tokenId];\n    }\n\n    function safeTransferFrom(address _from, address _to, uint256 _tokenId, bytes memory data) external override payable {\n        require(ownerOf[_tokenId] == msg.sender, \"Caller is not owner of token\");\n        require(tokenAproved[_tokenId] == _to , \"Token is not approved\");\n        require(address(0) != _to , \"_to address is null\");\n\n        ownerOf[_tokenId] = _to;\n        balanceOf[_to] += 1;\n        balanceOf[_from] -= 1;\n\n        emit Transfer(_from, _to, _tokenId);\n    }\n\n    function safeTransferFrom(address _from, address _to, uint256 _tokenId) external override payable {\n        require(ownerOf[_tokenId] == msg.sender, \"Caller is not owner of token\");\n        require(tokenAproved[_tokenId] == _to , \"Token is not approved\");\n        require(address(0) != _to, \"_to address is null\");\n\n        ownerOf[_tokenId] = _to;\n        balanceOf[_to] += 1;\n        balanceOf[_from] -= 1;\n\n        emit Transfer(_from, _to, _tokenId);\n    }\n\n    function transferFrom(address _from, address _to, uint256 _tokenId) external override payable {\n        require(ownerOf[_tokenId] == msg.sender , \"msg.sender is not the owner\");\n        require(ownerOf[_tokenId] == _from , \"_from is not owner of nft\");\n        require(ownerOf[_tokenId] != address(0) , \"Token Doesn't exsit\");\n        require(address(0) != _to , \"_to address is null\");\n\n        ownerOf[_tokenId] = _to;\n        balanceOf[_to] += 1;\n        balanceOf[_from] -= 1;\n\n        emit Transfer(_from, _to, _tokenId);\n    }\n\n    function approve(address _approved, uint256 _tokenId) external override payable {\n        require(ownerOf[_tokenId] != _approved , \"_approved can't be owner\");\n        tokenAproved[_tokenId] = _approved;\n\n        emit Approval(ownerOf[_tokenId], _approved, _tokenId);\n    }\n\n    function getApproved(uint256 _tokenId) external override view returns (address) {\n        return (tokenAproved[_tokenId]);\n    }\n\n    function _exists(uint256 tokenId) internal view virtual returns (bool) {\n        return ownerOf[tokenId] != address(0);\n    }\n}",
  "sourcePath": "/Users/klongrich/myfiles/eth/github/Metacards/contracts/MetaCardsNft.sol",
  "compiler": {
    "name": "solc",
    "version": "0.8.3+commit.8d00100c.Linux.g++"
  },
  "schemaVersion": "3.4.1",
  "updatedAt": "2021-05-29T02:52:09.411Z",
  "devdoc": {
    "kind": "dev",
    "methods": {
      "approve(address,uint256)": {
        "details": "The zero address indicates there is no approved address.  Throws unless `msg.sender` is the current NFT owner, or an authorized  operator of the current owner.",
        "params": {
          "_approved": "The new approved NFT controller",
          "_tokenId": "The NFT to approve"
        }
      },
      "getApproved(uint256)": {
        "details": "Throws if `_tokenId` is not a valid NFT.",
        "params": {
          "_tokenId": "The NFT to find the approved address for"
        },
        "returns": {
          "_0": "The approved address for this NFT, or the zero address if there is none"
        }
      },
      "safeTransferFrom(address,address,uint256)": {
        "details": "This works identically to the other function with an extra data parameter,  except this function just sets data to \"\".",
        "params": {
          "_from": "The current owner of the NFT",
          "_to": "The new owner",
          "_tokenId": "The NFT to transfer"
        }
      },
      "safeTransferFrom(address,address,uint256,bytes)": {
        "details": "Throws unless `msg.sender` is the current owner, an authorized  operator, or the approved address for this NFT. Throws if `_from` is  not the current owner. Throws if `_to` is the zero address. Throws if  `_tokenId` is not a valid NFT. When transfer is complete, this function  checks if `_to` is a smart contract (code size > 0). If so, it calls  `onERC721Received` on `_to` and throws if the return value is not  `bytes4(keccak256(\"onERC721Received(address,address,uint256,bytes)\"))`.",
        "params": {
          "_from": "The current owner of the NFT",
          "_to": "The new owner",
          "_tokenId": "The NFT to transfer",
          "data": "Additional data with no specified format, sent in call to `_to`"
        }
      },
      "tokenURI(uint256)": {
        "details": "Throws if `_tokenId` is not a valid NFT. URIs are defined in RFC  3986. The URI may point to a JSON file that conforms to the \"ERC721  Metadata JSON Schema\"."
      },
      "transferFrom(address,address,uint256)": {
        "details": "Throws unless `msg.sender` is the current owner, an authorized  operator, or the approved address for this NFT. Throws if `_from` is  not the current owner. Throws if `_to` is the zero address. Throws if  `_tokenId` is not a valid NFT.",
        "params": {
          "_from": "The current owner of the NFT",
          "_to": "The new owner",
          "_tokenId": "The NFT to transfer"
        }
      }
    },
    "stateVariables": {
      "balanceOf": {
        "details": "NFTs assigned to the zero address are considered invalid, and this  function throws for queries about the zero address.",
        "params": {
          "_owner": "An address for whom to query the balance"
        },
        "return": "The number of NFTs owned by `_owner`, possibly zero"
      },
      "ownerOf": {
        "details": "NFTs assigned to zero address are considered invalid, and queries  about them do throw.",
        "params": {
          "_tokenId": "The identifier for an NFT"
        },
        "return": "The address of the owner of the NFT"
      }
    },
    "version": 1
  },
  "userdoc": {
    "kind": "user",
    "methods": {
      "approve(address,uint256)": {
        "notice": "Change or reaffirm the approved address for an NFT"
      },
      "balanceOf(address)": {
        "notice": "Count all NFTs assigned to an owner"
      },
      "getApproved(uint256)": {
        "notice": "Get the approved address for a single NFT"
      },
      "name()": {
        "notice": "A descriptive name for a collection of NFTs in this contract"
      },
      "ownerOf(uint256)": {
        "notice": "Find the owner of an NFT"
      },
      "safeTransferFrom(address,address,uint256)": {
        "notice": "Transfers the ownership of an NFT from one address to another address"
      },
      "safeTransferFrom(address,address,uint256,bytes)": {
        "notice": "Transfers the ownership of an NFT from one address to another address"
      },
      "symbol()": {
        "notice": "An abbreviated name for NFTs in this contract"
      },
      "tokenURI(uint256)": {
        "notice": "A distinct Uniform Resource Identifier (URI) for a given asset."
      },
      "transferFrom(address,address,uint256)": {
        "notice": "Transfer ownership of an NFT -- THE CALLER IS RESPONSIBLE  TO CONFIRM THAT `_to` IS CAPABLE OF RECEIVING NFTS OR ELSE  THEY MAY BE PERMANENTLY LOST"
      }
    },
    "version": 1
  }
}